:100000000C9436000C9448000C9448000C94480062
:100010000C9448000C9448000C9448000C94480040
:100020000C9448000C9448000C9448000C944C002C
:100030000C9448000C9448000C9448000C94480020
:100040000C9448000C9448000C9448000C94480010
:100050000C9448000C9448000C9448000C94480000
:100060000C9448000C9448000C94480011241FBEC6
:10007000CFEFD4E0DEBFCDBF21E0A0E0B1E001C012
:100080001D92A130B207E1F70E9471000C94C100EB
:100090000C9400000C9476001F920F920FB60F92F2
:1000A00011248F9380E283B98F910F900FBE0F9030
:1000B0001F901895882341F0E9EFF0E03197F1F7B0
:1000C00000C000008150F6CF0895809100018F5F3D
:1000D0008093000163E00E94B50081E0890F0C94D9
:1000E0005A000E944A000E946500FDCF8FEE809367
:1000F000640084B114B885B19FEF95B987B1807859
:1001000087B988B18F6788B98AB11AB88BB19BB9A2
:100110008DB1807F8DB98EB18F608EB9259A2D9863
:1001200044E060E881E690E00E949B0013BE15BEAB
:1001300078940C94A2002FB7F894FC01608340835C
:100140002FBF0895E4E6F0E08081877F808389E017
:100150008093810080E197E29093890080938800EA
:1001600082E080936F0080E00895991B79E004C0DD
:10017000991F961708F0961B881F7A95C9F78095E6
:060180000895F894FFCF82
:00000001FF
