:100000000C9436000C9448000C9448000C94480062
:100010000C9448000C9448000C9448000C94480040
:100020000C9448000C9448000C9448000C94480030
:100030000C9448000C9448000C9448000C94480020
:100040000C9448000C9448000C944D000C947400DF
:100050000C9448000C9448000C9448000C94480000
:100060000C9448000C9448000C94480011241FBEC6
:10007000CFEFD4E0DEBFCDBF21E0A0E0B1E001C012
:100080001D92A432B207E1F70E94B0000C949501D2
:100090000C9400000E94E00008951F920F920FB68A
:1000A0000F9211242F933F934F935F936F937F93FE
:1000B0008F939F93AF93BF93EF93FF936091C6008D
:1000C00081E00E940601FF91EF91BF91AF919F9156
:1000D0008F917F916F915F914F913F912F910F90F1
:1000E0000FBE0F901F9018951F920F920FB60F9290
:1000F00011242F933F934F935F936F937F938F932D
:100100009F93AF93BF93EF93FF9380E00E946901A9
:10011000882331F0E1ECF0E080818F7D808305C0A1
:1001200080E00E943B018093C600FF91EF91BF9158
:10013000AF919F918F917F916F915F914F913F917F
:100140002F910F900FBE0F901F901895682F80E091
:100150000E940601E1ECF0E08081806280830895D6
:100160000E944A002D9888E60E94A60085E60E941B
:10017000A6008CE60E94A6008CE60E94A6008FE6F0
:100180000E94A60081E00E9469018111FBCF80E2FC
:100190000E94A60082E70E94A6008AE30E94A600B1
:1001A00081E00E943B010E94A60080E20E94A6001E
:1001B000E9CF50985898519A59980E94850108950E
:1001C0008FEE8093640084B114B885B19FEF95B928
:1001D00087B1807887B988B18F6788B98AB11AB832
:1001E0008BB19BB98DB1807F8DB98EB18F608EB987
:1001F000259A2D9840E060E881E690E00E947E011B
:1002000013BE15BE78940E94D9000895E82FF0E03F
:10021000DF01AA0FBB1FCD01880F991F880F991FFF
:10022000880F991FA80FB91FA050BF4F2C9111968E
:100230008C9130E0281B31092F7033272F30310586
:1002400011F42D9A0895EE0FFF1F9F01220F331F07
:10025000220F331F220F331FE20FF31FE050FF4F17
:1002600080818F70DF01A80FB11D12966C93808181
:100270008F5F8083089590E0FC01EE0FFF1F9F01C8
:10028000220F331F220F331F220F331FE20FF31FE2
:10029000E050FF4F308121813217C9F0880F991F3C
:1002A000FC01EE0FFF1FEE0FFF1FEE0FFF1F8E0F63
:1002B0009F1FFC01E050FF4F81818F70DF01A80F6D
:1002C000B11D12968C9191819F5F918308958FEF5C
:1002D0000895E82FF0E0EE0FFF1F9F01220F331F5C
:1002E000220F331F220F331FE20FF31FE050FF4F87
:1002F0002081918181E0291380E008952FB7F8943F
:10030000FC01608340832FBF0895E4E6F0E0808124
:100310008D7F80831092C5001092C4001092C0009F
:0E03200088EB8093C10080E00895F894FFCF31
:00000001FF
