S017000054696D6572506F6C6C696E674C65642E7372656322
S11300000C9436000C9448000C9448000C9448005E
S11300100C9448000C9448000C9448000C9448003C
S11300200C9448000C9448000C9448000C9448002C
S11300300C9448000C9448000C9448000C9448001C
S11300400C9448000C9448000C9448000C9448000C
S11300500C9448000C9448000C9448000C944800FC
S11300600C9448000C9448000C94480011241FBEC2
S1130070CFEFD4E0DEBFCDBF21E0A0E0B1E001C00E
S11300801D92A130B207E1F70E9471000C94B900EF
S11300900C9400000C947800809184009091850069
S11300A08031974230F0109285001092840080E2F3
S11300B083B90895882341F0E9EFF0E03197F1F72F
S11300C000C000008150F6CF0895809100018F5F39
S11300D08093000163E00E94AD0081E0890F0C94DD
S11300E05A000E944A000E944C000E946500FBCF07
S11300F08FEE8093640084B114B885B19FEF95B9F5
S113010087B1807887B988B18F6788B98AB11AB8FE
S11301108BB19BB98DB1807F8DB98EB18F608EB953
S1130120259A2D9844E060E881E690E00E949C00C6
S113013013BE15BE0C94A3002FB7F894FC01608382
S113014040832FBF0895E4E6F0E08081877F8083B9
S113015081E08093810080E00895991B79E004C0D8
S1130160991F961708F0961B881F7A95C9F78095F2
S10901700895F894FFCF8E
S9030000FC
