:100000000C9436000C9448000C9448000C94480062
:100010000C9448000C9448000C9448000C94480040
:100020000C9448000C9448000C9448000C94480030
:100030000C9448000C9448000C9448000C94480020
:100040000C9448000C9448000C9448000C94480010
:100050000C9448000C9448000C9448000C94480000
:100060000C9448000C9448000C94480011241FBEC6
:10007000CFEFD4E0DEBFCDBF21E0A0E0B1E001C012
:100080001D92A130B207E1F70E9478000C94B500F0
:100090000C9400000E947F0008958091840090914C
:1000A00085008031974230F01092850010928400D4
:1000B00080E283B90895882341F0E9EFF0E03197B9
:1000C000F1F700C000008150C1F708958091000150
:1000D0008F5F809300019BEA899F912D1124969553
:1000E000292F220F920F891B8F5F0E945B000895BA
:1000F0000E944A000E944D000E946600FBCF8FEED6
:100100008093640084B114B885B19FEF95B987B12D
:10011000807887B988B18F6788B98AB11AB88BB1EE
:100120009BB98DB1807F8DB98EB18F608EB9259AC4
:100130002D9844E060E881E690E00E94A40013BEA0
:1001400015BE0E94AB0008952FB7F894FC016083A0
:1001500040832FBF0895E4E6F0E08081877F8083AD
:0E01600081E08093810080E00895F894FFCF45
:00000001FF
