:100000000C9436000C9440000C9440000C9440007A
:100010000C9440000C9440000C9440000C94400060
:100020000C9440000C9440000C9440000C94400050
:100030000C9440000C9440000C9440000C94400040
:100040000C9440000C9440000C9440000C94400030
:100050000C9440000C9440000C9440000C94400020
:100060000C9440000C9440000C94400011241FBEDE
:10007000CFEFD4E0DEBFCDBF0E9445000C948C00D2
:100080000C9400000E944F0008950E944200FFCF90
:10009000569A5E98559A5D980E94790008958FEE61
:1000A0008093640084B114B885B19FEF95B987B18E
:1000B000807887B988B18F6788B98AB11AB88BB14F
:1000C0009BB98DB1807F8DB98EB18F608EB944E0C0
:1000D00060E881E690E00E94720013BE15BE0E94A7
:1000E000480008952FB7F894FC01608340832FBF28
:1000F0000895E4E6F0E080818F7D808383E684BD0F
:1001000089E085BD8FEF87BD8FE788BD8FE087BD14
:0C01100087E088BD80E00895F894FFCFE0
:00000001FF
