:100000000C9436000C9440000C9440000C9440007A
:100010000C9440000C9440000C9440000C94400060
:100020000C9440000C9440000C9440000C94400050
:100030000C9440000C9440000C9440000C94400040
:100040000C9440000C9440000C9440000C94400030
:100050000C9440000C9440000C9440000C94400020
:100060000C9440000C9440000C94400011241FBEDE
:10007000CFEFD4E0DEBFCDBF0E9445000C94A400BA
:100080000C9400000E94560008950E944200FFCF89
:10009000569A5E98559A5D980E9482000895239A18
:1000A0002B98539A5B980E94910008958FEE80934D
:1000B000640084B114B885B19FEF95B987B1807899
:1000C00087B988B18F6788B98AB11AB88BB19BB9E3
:1000D0008DB1807F8DB98EB18F608EB944E060E8BC
:1000E00081E690E00E947B0013BE15BE0E9448008E
:1000F0000E944F0008952FB7F894FC01608340835D
:100100002FBF0895E4E6F0E080818F7D808383EB4C
:1001100084BD81E085BD8FE787BD8FE388BD80E02A
:100120000895E4E6F0E080818F7B808381EB80930B
:10013000B00081E08093B1008FE78093B3008FE33C
:0C0140008093B40080E00895F894FFCF95
:00000001FF
