:100000000C9436000C9448000C9448000C94480062
:100010000C9448000C9448000C9448000C94480040
:100020000C9448000C9448000C9448000C944D002B
:100030000C9448000C9448000C9448000C94480020
:100040000C9448000C9448000C9448000C94480010
:100050000C9448000C9448000C9448000C94480000
:100060000C9448000C9448000C94480011241FBEC6
:10007000CFEFD4E0DEBFCDBF21E0A0E0B1E001C012
:100080001D92A130B207E1F70E9478000C94BD00E8
:100090000C9400000E947D0008951F920F920FB6ED
:1000A0000F9211248F9380E283B98F910F900FBE2E
:1000B0000F901F901895882341F0E9EFF0E03197F9
:1000C000F1F700C000008150C1F708958091000150
:1000D0008F5F809300019BEA899F912D1124969553
:1000E000292F220F920F891B8F5F0E945B000895BA
:1000F0000E944A000E946600FDCF8FEE809364004C
:1001000084B114B885B19FEF95B987B1807887B96C
:1001100088B18F6788B98AB11AB88BB19BB98DB194
:10012000807F8DB98EB18F608EB9259A2D9844E06D
:1001300060E881E690E00E94A30013BE15BE7894AB
:100140000E94AA0008952FB7F894FC0160834083B1
:100150002FBF0895E4E6F0E08081877F808389E007
:100160008093810080E197E29093890080938800DA
:0E01700082E080936F0080E00895F894FFCF46
:00000001FF
